:020000040000fa
:080000000001040000000000f3
:020000040000fa
:04000800a002000052
:020000040000fa
:04000c00e20200000c
:020000040000fa
:0400100022030000c7
:020000040000fa
:04001400c002000026
:020000040000fa
:0400180002030000df
:020000040000fa
:04001c00d00300000d
:020000040000fa
:04002000d003000009
:020000040000fa
:04002400d003000005
:020000040000fa
:04002800d003000001
:020000040000fa
:04002c00d0030000fd
:020000040000fa
:04003000d0030000f9
:020000040000fa
:04003400d0030000f5
:020000040000fa
:04003800d0030000f1
:020000040000fa
:04003c00d0030000ed
:020000040000fa
:04004000d0030000e9
:020000040000fa
:04004400d0030000e5
:020000040000fa
:04004800d0030000e1
:020000040000fa
:04004c00d0030000dd
:020000040000fa
:04005000d0030000d9
:020000040000fa
:04005400d0030000d5
:020000040000fa
:04005800d0030000d1
:020000040000fa
:04005c00d0030000cd
:020000040000fa
:04006000d0030000c9
:020000040000fa
:04006400d0030000c5
:020000040000fa
:04006800b2030000df
:020000040000fa
:04006c0094030000f9
:020000040000fa
:04007000d0030000b9
:020000040000fa
:04007400d0030000b5
:020000040000fa
:04007800d0030000b1
:020000040000fa
:04007c00d0030000ad
:020000040000fa
:04008000d0030000a9
:020000040000fa
:04008400d0030000a5
:020000040000fa
:04008800d0030000a1
:020000040000fa
:04008c00d00300009d
:020000040000fa
:04009000d003000099
:020000040000fa
:04009400d003000095
:020000040000fa
:04009800d003000091
:020000040000fa
:04009c00d00300008d
:020000040000fa
:0400a00060030000f9
:020000040000fa
:0400a4004203000013
:020000040000fa
:0400a800d003000081
:020000040000fa
:0400ac00d00300007d
:020000040000fa
:0400b000d003000079
:020000040000fa
:0400b400d003000075
:020000040000fa
:0400b800d003000071
:020000040000fa
:0400bc00d00300006d
:020000040000fa
:0400c000d003000069
:020000040000fa
:0400c400d003000065
:020000040000fa
:0400c800d003000061
:020000040000fa
:0400cc00d00300005d
:020000040000fa
:0400d000d003000059
:020000040000fa
:0400d400d003000055
:020000040000fa
:0400d800d003000051
:020000040000fa
:0400dc00d00300004d
:020000040000fa
:0400e000d003000049
:020000040000fa
:0400e400d003000045
:020000040000fa
:0400e800d003000041
:020000040000fa
:0400ec00d00300003d
:020000040000fa
:0400f000d003000039
:020000040000fa
:0400f400d003000035
:020000040000fa
:0400f800d003000031
:020000040000fa
:0400fc00d00300002d
:020000040000fa
:04010000d003000028
:020000040000fa
:04010400d003000024
:020000040000fa
:04010800d003000020
:020000040000fa
:04010c00d00300001c
:020000040000fa
:04011000d003000018
:020000040000fa
:04011400d003000014
:020000040000fa
:04011800d003000010
:020000040000fa
:04011c00d00300000c
:020000040000fa
:04012000d003000008
:020000040000fa
:04012400d003000004
:020000040000fa
:04012800d003000000
:020000040000fa
:04012c00d0030000fc
:020000040000fa
:040130007e0300004a
:020000040000fa
:04013400d0030000f4
:020000040000fa
:04013800d0030000f0
:020000040000fa
:04013c00d0030000ec
:020000040000fa
:04014000d0030000e8
:020000040000fa
:04014400d0030000e4
:020000040000fa
:04014800d0030000e0
:020000040000fa
:04014c00d0030000dc
:020000040000fa
:04015000d0030000d8
:020000040000fa
:04015400d0030000d4
:020000040000fa
:04015800d0030000d0
:020000040000fa
:04015c00d0030000cc
:020000040000fa
:04016000d0030000c8
:020000040000fa
:04016400d0030000c4
:020000040000fa
:04016800d0030000c0
:020000040000fa
:04016c00d0030000bc
:020000040000fa
:04017000d0030000b8
:020000040000fa
:04017400d0030000b4
:020000040000fa
:04017800d0030000b0
:020000040000fa
:04017c00d0030000ac
:020000040000fa
:04018000d0030000a8
:020000040000fa
:04018400d0030000a4
:020000040000fa
:04018800d0030000a0
:020000040000fa
:04018c00d00300009c
:020000040000fa
:04019000d003000098
:020000040000fa
:04019400d003000094
:020000040000fa
:04019800d003000090
:020000040000fa
:04019c00d00300008c
:020000040000fa
:0401a000d003000088
:020000040000fa
:0401a400d003000084
:020000040000fa
:0401a800d003000080
:020000040000fa
:0401ac00d00300007c
:020000040000fa
:0401b000d003000078
:020000040000fa
:0401b400d003000074
:020000040000fa
:0401b800d003000070
:020000040000fa
:0401bc00d00300006c
:020000040000fa
:0401c000d003000068
:020000040000fa
:0401c400d003000064
:020000040000fa
:0401c800d003000060
:020000040000fa
:0401cc00d00300005c
:020000040000fa
:0401d000d003000058
:020000040000fa
:0401d400d003000054
:020000040000fa
:0401d800d003000050
:020000040000fa
:0401dc00d00300004c
:020000040000fa
:0401e000d003000048
:020000040000fa
:0401e400d003000044
:020000040000fa
:0401e800d003000040
:020000040000fa
:0401ec00d00300003c
:020000040000fa
:0401f000d003000038
:020000040000fa
:0401f400d003000034
:020000040000fa
:0401f800d003000030
:020000040000fa
:0401fc00d00300002c
:020000040000fa
:100200002f9320000e7f24000e01880000000000c4
:10021000000020000000e000020032000001200089
:100220002002880014000700aa0107000000e00077
:1002300003003a00c015280001002000020037002a
:100240000000200001002000810f7000010032003a
:1002500014000700000020000000e000020032004f
:100260000000020000000000aa8002000000000060
:100270000040da000000fe004440a900200a2100ee
:100280000000e00003003200002020009001880000
:100290004440a800000006008a1f78008b1f7800e9
:1002a00000000600a1028800800478000000eb0036
:1002b0001f003700e284440054a0b4009905ba003e
:1002c000e284440054a0b4009906ba00e2844400d9
:1002d00054a0b4000006eb00476fde00fd07b2003b
:1002e000ae018800636ce10003003a00eaff0700fa
:1002f0000000eb000e003700606ce10008003a00df
:10030000004deb000a05e800020039003420ec0043
:100310000af0a0008b05e900f9ff3e000400370059
:100320006168e100010032000086eb000b0007006d
:1003300019c7ba001905ba000e04e00003003a001c
:100340000a00e000dbff3a0000000600fe07b200f2
:10035000ae0288008a047800f5ff37000cd0a300b5
:10036000e20f4d001c00390089027800354dba00bb
:100370000a05e800020039003420ec000af0a00071
:100380008b05e9000f003200254dba000a05e80090
:10039000020039003420ec000af0a0008b05e900cf
:1003a000080032000c00e0000600320015cdba0053
:1003b0000a05e800020039003420ec000af0a00031
:1003c0008b05e9008984e80054a0b4000b00e0002c
:1003d000e2ff3a00000006009902ba00055d7800cd
:1003e0008b05e900f7ff3200c82ade00055d7800c2
:1003f0008b05e900f3ff32000c00e000f1ff320052
:1004000019ddba00eeff37000c7a0400000000008e
:100410009e84040000000000827a040000000000b6
:10042000ea7a040000000000387b040000000000ad
:10043000827b0400000000006077040000000000e0
:100440008c77040000000000cc770400000000005e
:10045000b677040000000000b6760400000000003b
:10046000127704000000000006770400000000007e
:100470000078040000000000c276040000000000c4
:1004800080760400000000002076040000000000d8
:100490002a76040000000000187604000000000026
:1004a000f0750400000000007e74040000000000ed
:1004b000b874040000000000d474040000000000c0
:1004c0003a7504000000000086750400000000007a
:1004d000ea74040000000000c4750400000000007d
:1004e00090740400000000009a74040000000000f2
:1004f000a474040000000000ae74040000000000ba
:10050000fa740400000000000475040000000000fc
:100510000e750400000000006a7404000000000072
:100520001875040000000000c02604000000000050
:1005300034210400000000003c170400000000000b
:100540003600f800809fbe00829fbe00849fbe00e0
:10055000869fbe000000fa008020a9000000eb008a
:100560000e4107000080fa004f03be004f02be009c
:100570004f01be004f00be003600f90000400600eb
:100580003600f800809fbe00829fbe00849fbe00a0
:10059000869fbe000000fa00054107008040a900c8
:1005a00010002000fd4007000080fa004f03be004d
:1005b0004f02be004f01be004f00be003600f900e2
:1005c000004006003600f800809fbe00829fbe00fb
:1005d000849fbe00869fbe000000fa008060a900d4
:1005e00020002000ed4007000080fa004f03be000d
:1005f0004f02be004f01be004f00be003600f900a2
:10060000004006003600f800809fbe00829fbe00ba
:10061000849fbe00869fbe000000fa008080a90073
:1006200030002000dd4007000080fa004f03be00cc
:100630004f02be004f01be004f00be003600f90061
:10064000004006003600f800809fbe00829fbe007a
:10065000849fbe00869fbe000000fa008600a900ad
:1006600070002000cd4007000080fa004f03be005c
:100670004f02be004f01be004f00be003600f90021
:10068000004006003600f800809fbe00829fbe003a
:10069000849fbe00869fbe000000fa00504080008c
:1006a000000001000080fa004f03be004f02be00b0
:1006b0004f01be004f00be003600f90000400600aa
:1006c0003600f800809fbe00829fbe00849fbe005f
:1006d000869fbe000000fa0060408000000001001c
:1006e0000080fa004f03be004f02be004f01be0063
:1006f0004f00be003600f90000400600801f780061
:100700000000fa00801d8000620060000000e00030
:1007100001003200b023a9009040a9000080fa0037
:100720004f007800004006003600f800809fbe00b1
:10073000829fbe00849fbe00869fbe000000fa001c
:1007400080408000000001000080fa004f03be00de
:100750004f02be004f01be004f00be003600f90040
:10076000004006003600f800809fbe00829fbe0059
:10077000849fbe00869fbe000000fa00904080006b
:10078000000001000080fa004f03be004f02be00cf
:100790004f01be004f00be003600f90000400600c9
:1007a0000040da000000fe000a00fa0011002000fc
:1007b000b1bf9f00c0bf9f006a8057006212070050
:1007c0004fb897000080fa00000006000a00fa0007
:1007d000e20f500034003e0080498000e10f5000dd
:1007e00003003200e20f500011003a000c00370005
:1007f000833920000300e00001003a000040da00e5
:100800009803e20002003500a023ef0099e3a8005e
:100810009b43ab000d003a009b43a8000b00370040
:10082000e33a20000300e00001003a000040da0053
:10083000ae03e20002003500b623ef00afe3a800ec
:10084000b143ab0001003a00b143a8008201780037
:100850000b0037003102fb00e10f500004003a00aa
:100860009b23ab00feff3a00e41c88000300370026
:10087000b123ab00feff3a00941d88008301e9001c
:100880000300e000f3ff3a00e10f500003003a00dc
:100890009b03ab00feff32000b003700b103ab003f
:1008a000feff32000800370033002000b3bf9f0076
:1008b000c0bf9f00d1bf9f00e2bf9f006a8057006a
:1008c000231207006fb99700020078000080fa0039
:1008d00000000600000005000001be003c0007000b
:1008e0000470a70003f0a1006509b10016003200f2
:1008f0000d0035006828e10006003500f0ff2f00ec
:10090000f1ff27000300e00013003b000100280076
:100910000000050000004000818048008502e900d9
:10092000fcff3a0008003700f88f420002003c004c
:100930008000eb00000005008100d1000080d300a2
:100940008502e800fcff3a000300e00002003b00e3
:1009500060001000e0801800000006000001be00ea
:100960001b0007000470a70003f0a10003f8a30018
:1009700013003a006509b10010003200090035008b
:100980006928e10002003500010028000000050090
:1009900000004000818048008502e900fcff3a0029
:1009a00000000600f88f4200050035008100d100ec
:1009b0000080d3008502e800fcff3a00000006003a
:1009c0008000eb00000005006011b8006a033700ea
:1009d000c70ade00f107b200f50fb20008003200ce
:1009e000e1cf4200020032000170a00024000500a7
:1009f000810f70000100320004080500440005006a
:100a0000810f700002003a00140005008502e90021
:100a10000000400081c04800fcff3b000170a000c6
:100a20002400050007f82700078361000638e1006d
:100a300004003a00f70720008783610087037100f4
:100a400001003a0003f0a200889fbe008a9fbe000a
:100a50008c9fbe00470ade000480a100c71ade009a
:100a60000580a100070028000785600087856100d8
:100a7000f70f20000720e1009e0032000728e10068
:100a80009c003200010678000400e000b40032004f
:100a9000f7072000878060000170a0000500e000db
:100aa000c0003200f7072000878161000370a000ba
:100ab000050652000f003a000b50e1000b00320017
:100ac0000308e10002003a000200e1007e0032006b
:100ad0000204500083845800040031000001fd002e
:100ae0008101fd008402fd008a05fd006044b8001c
:100af000210037000520e10005003d000001fd0058
:100b00008101fd008402fd008a05fd0005065200fa
:100b10007a60e100050035000170a1004722dd0088
:100b2000848070008a807000630037006044b800e1
:100b3000ef02660007ff2f00070666000500e000d1
:100b400006003400f08312008714dd000511de007a
:100b5000071bdd00060171008519de007060e100f1
:100b6000050035000904780082047800030178004c
:100b70008001eb00700656000b50e10003003a00c4
:100b80000200400083804800040037006004140025
:100b9000e0841c0002005800838058000188a300f4
:100ba000060032008100d1000080d3008984d30088
:100bb0000884d3000402e800270037000178a3006e
:100bc00025003a000100e000030032008186cf00da
:100bd000698656000a0037008c0020000000e00003
:100be00004003a0009007800880478000004eb0053
:100bf000700252008086cf000d0646000c06e90008
:100c00007060e1000600350080007800090078007f
:100c1000880478000004eb00700656007002520051
:100c20000c00e0000c0034008c08dd00f00316001e
:100c30000703de00868070000c00dd00074bde003d
:100c4000060070008c4cdd000743de0086847400d3
:100c50000c44dd000c0252006120e1002000350050
:100c6000610160000700280087816400f7ff27000a
:100c700087836400070374000300e000060032006d
:100c800082037300040032000000e800e0804800a6
:100c90000188a3000e003a00f70f20000720e100b2
:100ca0004a003d000170a1004722dd008100720072
:100cb0008a8070000000be004f06be004f05be00d7
:100cc0004f04be00000006006000b800faff3700c5
:100cd0008100d1000080d3000402e800eeff37005d
:100ce0000401780089017400a10107008a80700066
:100cf000f1ff3700f7010700070278000001fd004f
:100d00008101fd00f301070087027800850372006e
:100d10000778a300040032000001fd008101fd00fe
:100d200006020700e4ff3700850362000768a3009e
:100d3000080032000b50e10003003200f0ff2f00ea
:100d4000f1ff2700dcff37000001fd008101fd00fd
:100d5000d9ff37000468a300d7ff3200faff37003d
:100d6000f8ff2700888360000b003a000000e000d5
:100d700009003a008303640082837300020032009a
:100d80000200be00ccff37000b50e100ceff3a005e
:100d90000200be00c8ff370014002000810064007c
:100da0003eff3700f8ff27008883610004003a0007
:100db0000200e00002003a008c007800beff37001d
:100dc000150020008301640039ff370001f8270077
:100dd0000000200081007500b7ff3700889fbe002b
:100de0008a9fbe008c9fbe001b0020000202be0036
:100df0000586680006002800060666004709de0032
:100e0000f20fb200820032000243e800800032009c
:100e1000c729de00f30fb2007d0032000343e80073
:100e20007b003200f107b2000170a000f507b200ac
:100e30000570a000c708dd004903de008680700051
:100e40004700dd00c72add004923de0086827200ec
:100e50004722dd000305510004035000858358003c
:100e60000300310000004000818048000a05e900cd
:100e70008c1f78008a9fbe000400500085805800b7
:100e80000402420085824a00000040008180480040
:100e90000005eb000004be006033b8000406be008d
:100ea0000d48e10056003100110009004dccd8007a
:100eb0000c01b8000d02b8008481410060824a0034
:100ec0008283530003045c0084845c0060055d0041
:100ed0000a00e00025003a00800578000d40e1009e
:100ee00049003100880078000700780011000900ef
:100ef0004d88d8000c01b8000d02b8008481410073
:100f000060824a006003110083835b0004045c007c
:100f1000e0845c000900e00021003a004f01be00bf
:100f20000300e0002b003200e301600007067300bd
:100f30008c81710001003200640070004200de000c
:100f40004e5edd000c007000c258de0001e0a00023
:100f500083010700cf017800818071004f06be0039
:100f60004f05be004f04be00000006008c83430006
:100f70000d044c00e0844c0060054d000000e900c9
:100f80000a00e000d4ff32008c8343000d044c00c3
:100f9000e0844c0060054d000000e900ceff370002
:100fa0000c0343008d834b0060044c00e0844c0034
:100fb0000000e9000900e000d8ff32000c03430004
:100fc0008d834b0060044c00e0844c000000e9007d
:100fd000d2ff37004200de004e5edd000c007000e4
:100fe000c258de0001e0a000cf0178000300e0005d
:100ff000daff320060001000e0801800d7ff3700f1
:10100000f0ff2f00aaff3700f0ff2f00b9ff3700d5
:101010000404be002f010700870678000004fd00cd
:101020008104fd002b010700078366000678a300fa
:10103000030032000960a7000800be002c00370042
:101040000d78a300020032000800be00280037001f
:101050000778a30026003a0001f0a10009f0a100e2
:101060000668a30003003200f1ff2700f0ff2f0005
:10107000baff37000d68a300030032000800be006d
:101080008c807000b5ff37000768a30007003a00a6
:101090000648a30003003200f1ff2700f0ff2f00f5
:1010a000aeff37000d48a300030032006000b80017
:1010b0008c807000a9ff37000748a30004003200ad
:1010c00001f82700000020008c807000a3ff37008b
:1010d000760107000004fd008104fd000205780090
:1010e000720107000802be008a01780059ff37002c
:1010f0000160a00012022000e240880097ff370044
:101100000100e000120032000500e0001000320093
:10111000889fbe008a9fbe008c9fbe000006eb0029
:1011200001f8a3000300320060001000e080180006
:101130000cf0a00005f8a3000300320060021200ca
:10114000e0821a000cf0a2008005eb0041ff37009e
:101150006000b80002000500038368000700280053
:1011600007036300470ade000480a100c71ade00ff
:101170000580a100f70f20000720e10042003200a7
:101180000728e10040003200889fbe008a9fbe0011
:101190008c1f7800f107b200f307b2000400e000f2
:1011a000640032000170a0000500e0006800320019
:1011b0000370a00085054200eb07b1000204b800ef
:1011c0000302b8008484440060854a00020ab80023
:1011d000848444000a854a00030ab80004054500d7
:1011e000040033000804d0008984d2000a85d200ac
:1011f0008b05e9006158e1003d0035000210200038
:10120000090161000308200089816100f7072000bf
:101210008783640008867300c84cde00c853dd0075
:10122000878474004855de000300e00006003200a9
:1012300082037600040032008904e80060054d0056
:101240000a88a3000c003a00f70f20000758e100bd
:1012500044003d000a70a100c75ddd000a857500ed
:101260008a007300090078004f0678004f05be0021
:101270004f04be00000006000a05d1008984d30097
:101280008b05e800f0ff3700881f7800060478001f
:1012900090000700070278000001fd008101fd00b9
:1012a0008c00070087027800850372000778a3008e
:1012b000050032000001fd008101fd009f000700d4
:1012c0004f04780000000600850372000748a30061
:1012d00003003200f0ff2f00f1ff2700f8ff370076
:1012e0000000200001f8270088807000f4ff37001c
:1012f000880178004848dd00808171004848de00a0
:10130000c850dd0001007000c850de0006047800ff
:101310000b0178001600070088807000d2ff3700ac
:101320000500e00005003200170020003a00070029
:101330009dff370081037000f9ff3a0086007800b6
:101340004f0678004f05be004f04be0000000500a8
:1013500083037100f9ff3200270020002e000700f0
:1013600094ff370001f8270086807000f4ff3700f3
:101370000100e00026003200610111007810e10058
:1013800023003c006022b8007010e100040035002a
:1013900080027800010078008000eb0070015100ad
:1013a0000200e0000900340070031100062add008d
:1013b000822ade008603dd00878272000200de00e2
:1013c000860bdd00070070008208de00848171005a
:1013d000f4ff270004826200848171000400280069
:1013e000848262006102600005f0a6000000060031
:1013f00004827100070032000000e800e08048002d
:10140000000006000002be006000b800efff3700d9
:101410006000b80000000600889fbe000004eb00da
:101420006138e10016003a000100e00008003a00cf
:10143000c800de004800dd00880020000100e00058
:1014400003003a00c800de004800dd0068044400e4
:101450008184cf00e9845400060034008908dd004f
:10146000f08314008703de00878070000900dd0030
:1014700009044400610214004f04be00000006008d
:101480000300e00008003a00c811de004811dd004a
:10149000880020000300e00003003a00c811de00cd
:1014a0004811dd00680444008384cf00e9845400bf
:1014b000060034008919dd00f08314008713de0074
:1014c000878171000911dd0009044400e102140064
:1014d000e9ff37002700200001f0a70017002000d7
:1014e000470bde00f60fb200040032000643e800ae
:1014f0000a0032004702b300000006000103780032
:10150000f607b2000603700002003a000703b300ba
:10151000000006008702b300000006000103780007
:10152000f607b20006037000020032000770a00048
:10153000000006000760a000000006000478a30079
:10154000040032000578a300030032000168a30004
:1015500001003a000200be000160a0000000060089
:1015600081017000270032008002eb0001f8a30027
:101570000300320060001000e08018001500200019
:10158000f40720000202420020003400f70320008c
:1015900087036000060420000003630002082000a7
:1015a000000161004700de00c909dd000080710014
:1015b000c708de000600e000080032008703710063
:1015c000060032001000b0000180b0000188a300c6
:1015d00002003200c108de000402e800f107b20098
:1015e000f30f20000320e10003003d004722dd004f
:1015f000810072002900370001f827000000eb008d
:10160000260037006000b8000000060068021200e3
:101610007f20e100020034006000b8001f003700a6
:101620006011b8007020e1000400350080017800ee
:10163000010078008000eb00700252000400e0001e
:1016400009003400f00312000719dd008419de00e0
:101650000703dd00868171000400de00070bdd005a
:10166000060070008408de00f7ff27008383630014
:10167000870371000600280003036300070032009f
:101680000700e00003003a0061016000028173007e
:10169000020032001000b0000180b0000500a6007a
:1016a0000000060001f0a000000006004f0ade0066
:1016b0004709de00f107b200f20fb2000b00320062
:1016c000f207b1000170a000c708dd00c901de000b
:1016d000838070004700dd000400a60000000600c3
:1016e00060001000e080180000000600810f70000c
:1016f00001003a00000006008182cf000500e000f2
:1017000010003e008082cf00ee8242007028e1008f
:101710000400390007003e00800078000000eb0064
:101720000e003700708312008600de000500dd0029
:101730000a003700708352008600dd000000eb00d5
:1017400006003700e28252008508dd007083120037
:101750000603de00868070000500dd007507b0001e
:101760000501ea000400a600000006006000100069
:10177000e080180000000600889fbe008a9fbe001f
:1017800000827000040271000482710026003200a1
:101790000004be000200be006011b8006b0920000a
:1017a000950220000182cf000a0039000541b100f6
:1017b0000082cf00070039000541b1000982cf0047
:1017c000040039000541b1000882cf000100390052
:1017d0000541b10005425200120032000a003b00f0
:1017e00082817100610164008100d1000080d3001a
:1017f0008984d3000884d3008b05e8000442e80004
:10180000f7ff3a00070037000804440089844c00c1
:1018100000004800818048008b05e9000442e9008f
:10182000f9ff3a00030007004f05be004f04be0059
:101830000000060081002000618055000b003d0083
:101840000b00200061fe2f000100e1001d003400ac
:1018500082817100610164008904d1000884d30091
:101860000000e800faff3a00710020006100640007
:1018700003007000020060000900320061044400af
:10188000e0844c000988a500050032008b05e800c3
:101890006808e10002003a008904d1000884d300fe
:1018a000f20f20000258e10005003d00c75ddd0099
:1018b000f907b20089807500080078000000060072
:1018c0000bf827008b00780000000500889fbe0001
:1018d000020478000002be004709de000300200079
:1018e000f20fb200f207b100f60f51000f00340002
:1018f000008cbe0003082000830f510007003a004f
:101900004909dd00c701de00830171004901dd00e6
:10191000e00f5100e08f590025003a00020020003e
:101920000300280085806100190037000200e000f4
:1019300006003d00060020000700280085816300a6
:1019400006017800028cbe0019003700f6ff2f0058
:10195000f70720000201e900030033008783d1006c
:101960000683d300fbff3700050278008701620081
:1019700006016000e00f5100e08f590006003a00b8
:10198000008cbe00020020000300280083006200db
:1019900002007800060037000683ea008783ea0029
:1019a0008701620006016000028cbe001dfc07007a
:1019b0004f04be00000006004f02b000889fbe002a
:1019c0008a9fbe008c9fbe008e1f78000005be005f
:1019d0000204be00b2af9f00c3af9f00b2b79f002a
:1019e000c3b79f00cfae97000df0a10002067800ac
:1019f000e00f5600e08f5e00c0033200faaf9f0098
:101a00008bb79f000000200001f82300800f5500d5
:101a1000818f5d00b90332008fb2970005f0a100fd
:101a20007faa970094b79f00a5b79f0000002000f1
:101a300001f82700800f5200818f5a0003003c00fc
:101a4000800f5600818f5e00040034000a01be0042
:101a50000800be00fcfb0700af0337006033b8008e
:101a60007fa997008fb19700e00f5100e08f5900d8
:101a700029003d002600200007002000f0ff2f0075
:101a8000f1b72400800f5600818f5e0022003c00d9
:101a90006033b800f0ff2f00f1f72300800f5600ed
:101aa000818f5e003300340047e8de00cfe8de00bf
:101ab000f007b1000180b100770110000c00be00fa
:101ac000820178008301e900030033008180d100a6
:101ad0000080d300fbff37000003be000207780040
:101ae0000e07e900030033000603430087834b0021
:101af000fbff37000601be006033b8008c0f5100b9
:101b00008d8f59001b003a006103600062031300cf
:101b1000e0831b00170037000000200001f82700b9
:101b2000800f5600818f5e0012003a0000002000f6
:101b300001f82300800f5200818f5a006f0332009a
:101b4000060034003fb09700cfb09700e00f500080
:101b5000e08f580071033d006b0337003fb19700e1
:101b6000cfb19700e00f5100e08f590066033d00b0
:101b7000690037000000200001f82300800f5600a4
:101b8000818f5e0009003a003fb29700cfb2970004
:101b9000e00f5200e08f5a005d033d000a01be00d5
:101ba0000000200001f8230055003700000020004d
:101bb000010024003fb19700cfb19700800f510082
:101bc000818f590003003a000a01be000a00be00de
:101bd000480337000000200001f023003fb19700c8
:101be000cfb19700800f5100818f590008003a0053
:101bf0007fa897008fb09700e00f5000e08f58004b
:101c0000030035000a00be007503070042033700d9
:101c10000a00be00f4b79f0085bf9f00d6b79f00a3
:101c2000e7b79f00f80307000200200003f8270031
:101c30007fb297008fba97005fb39700efb397001a
:101c4000820f5200838f5a0008003200e00f5200ca
:101c5000e08f5a00050032000200200003f8230044
:101c6000820f5200838f5a002d003a003fb1970037
:101c7000cfb19700e00f5100e08f59000c003d00fc
:101c80000001be000000200001f82300f4b79f000f
:101c900085bf9f00d6b79f00e7b79f004ffc0700a6
:101ca0007fb297008fba97005fb39700efb39700aa
:101cb0007fa997008fb19700e00f5100e08f590086
:101cc00015033d000200200003082c00040241001f
:101cd000858249000402730085827300e00f520080
:101ce000e08f5a0008003a00120220007249880072
:101cf0000001be000200be004afb07000001be005a
:101d000036fc070004033700e10f5300e08f5b004f
:101d100001033a000004be0009f0a200ff023700f0
:101d20007fa997008fb19700e00f5100e08f590015
:101d30000d003d00e00f5300e08f5b0004003a000f
:101d400010022000704988000a01be00e9ff370038
:101d5000e10f5300e08f5b00080032000600200016
:101d600007f82300070037000200200003f82300d3
:101d7000f2af9f0083b79f000400370006002000e9
:101d800007f82b00f6af9f0087b79f0002002000e6
:101d900003d02400820f5600838f5e00560034006b
:101da00072ff2f00f3f72300820f5200838f5a0037
:101db00006003c003fb09700cfb09700e00f500006
:101dc000e08f580004023d00e2013700720020005d
:101dd00003f82300820f5200838f5a00060034005c
:101de0003fb19700cfb19700e00f5100e08f59004d
:101df000d8013c00f80137000200200003f823005e
:101e000008fb07000005be0002a02a0083fb230098
:101e1000d1fc070090b79f00a1b79f0002572a008e
:101e2000c36e23000a00be00cbfc07000002be0008
:101e30000a01be000a00be00f4b79f0085bf9f00e4
:101e4000c5fc07000006be000200200003e82300d6
:101e50000a00be00c0fc07000001be00b0aa2a00b4
:101e6000a1ea2300effa07000001be000a00be004d
:101e7000b9fc07000001be000000200001f02300b3
:101e8000e8fa07000001be000c00be00b2fc07002b
:101e9000b2a32a0083fb2300affc07000001be00b1
:101ea0007fb297008fba97000400be00ddfa0700ea
:101eb0000005be000001be001fb09700afb0970044
:101ec000e1fa07000001be008300780004002f0043
:101ed000020062000003be00b6b79f00c7b79f00b4
:101ee0001fb19700afb19700cefa07000001be0006
:101ef0000a00be00560137006011b800f6ff2f003f
:101f0000f7072000860f5200878f5a0007003c0019
:101f10000200200003b824008ffc070090b79f0048
:101f2000a1b79f0082fe2f00f3ff2f00f207b10040
:101f30000380b1002fb2970047a0de008402780032
:101f4000cfa8de00020340008383480096af9f00c5
:101f5000a7af9f0085007800f107b2001fb097007f
:101f60000200200003f82300020270008382700048
:101f700094b79f00a5b79f006033b800d6af9f000d
:101f8000e7af9f0012472c00c3012000820f5000d2
:101f9000838f58001a003400120020000300200034
:101fa000d2af9f00e3af9f00623d2b00d30520001e
:101fb000820f5000838f5800110034001faa970031
:101fc000afaa970061024200e0824a0094af9f00ee
:101fd000a5af9f000000200001f82f001fb397005d
:101fe000afb39700060340008783480096b79f0071
:101ff000a7b79f006000b800d0af9f00e1af9f007f
:10200000dfa89700c208dd0081af9f00408e20004e
:10201000010040001005be000a01be001fb097007d
:10202000afb097007ffa07000006be000a01be00ad
:102030001fb09700afb0970083fa07000001be0001
:102040000000200001f8230064fb07000002be002e
:102050000001be000c00be00f4b79f0085bf9f00ca
:102060003dfc07000003be000e002f008101780038
:10207000c3b79f0000016700b2b79f005fa8970039
:10208000efa89700c500dd0000002000d0af9f0042
:10209000e1af9f0000002000010420005fa997002d
:1020a000efa997000201400083814800d2af9f0052
:1020b000e3af9f001fb09700afb097008181d100c0
:1020c0000081d3008300780001d0a10002006700e6
:1020d00001d0a0005fa99700efa99700020140007e
:1020e00083814800d2af9f00e3af9f005fa99700b4
:1020f000efa997003fb09700cfb09700d6b79f00e9
:10210000e7b79f0014fc07000001be000c00be00f2
:1021100044fa07000006be000a01be005fa897004f
:10212000efa897003ffa07000001be001fb097001c
:10213000afb097003bfa07000001be003fb0970028
:10214000cfb0970004fc07000001be000c00be00e9
:1021500034fa07000001be007fb297008fba9700e3
:102160000400be00fcfb07000006be005fb3970042
:10217000efb397000601be000600be00f6fb0700a5
:102180000005be000001be00f3fb07000002be0018
:1021900022142f0033e523000a00be00f4b79f008d
:1021a00085bf9f00ecfb070052252300c3e62300f8
:1021b00025fa07000001be000a00be00e6fb07008a
:1021c00052302a00b3e823001ffa07000001be00c6
:1021d0000a00be00e0fb0700b2aa2a00a3ea23001f
:1021e00019fa07000001be000a00be00dafb070072
:1021f00072db2600b3ed230013fa07000001be00d6
:102200000a00be00d4fb0700a299290093f1230025
:102210000dfa07000001be007fb297008fba970049
:102220000400be00ccfb07000005be005fb39700b2
:10223000efb397000601be003fb09700cfb0970004
:1022400001fa07000001be000c00be00c2fb07003f
:102250000001be000a00be00fbf9070090b79f0016
:10226000a1b79f003fb19700cfb197000200be0019
:10227000b9fb07000005be00020020000304240093
:10228000f1f907001fb19700afb19700eef9070011
:1022900081027800000267000401be003fb0970091
:1022a000cfb09700f4b79f0085bf9f00aafb07003f
:1022b000b0b79f00c1b79f007fb297008fba970059
:1022c0000401be000c00be00a3fb07000006be0018
:1022d00002002000030424007fb297008fba970009
:1022e0000400be00cff907000a01be00cdf90700c7
:1022f0000001be001fb09700afb09700c9f90700fa
:102300005fb39700efb397000601be0092fb070092
:102310000001be000c00be00cbf907000005be00a6
:102320000001be003fb09700cfb09700c6f907008c
:1023300081027800000267000200240063f7230096
:102340000400be00f4b79f0085bf9f0082fb07001a
:1023500090b79f00a1b79f00623c2200638f2b00c3
:102360007fb297008fba97000400be007afb070087
:102370000006be003fb19700cfb197007fb2970033
:102380008fba97000400be00a6f907000001be0046
:102390000a00be00a3f90700f284230063f72300bc
:1023a0006dfb07000001be000c00be00a6f907008f
:1023b000c28e20008fab9700070141001201be00c2
:1023c000a1f90700d0af9f00e1af9f001fa89700c1
:1023d000afa89700b90b07000006be00408f200091
:1023e0008fa99700030040001005be005fa9970069
:1023f000efa997001fb09700afb0970092f90700c0
:102400000a01be0090f907000c01be008ef907001a
:102410000001be0083007800020067000002be00d9
:10242000b4b79f00c5b79f000c01be007df907003f
:102430000a01be007bf907001fb19700afb19700fa
:1024400078f907000001be005fa89700efa8970089
:1024500074f907000005be00cfaa970000002f0006
:10246000bfab9700070260000401be000800be0079
:10247000f4b79f0085bf9f006af907003fb197003e
:10248000cfb1970034fb07000006be000a01be0072
:102490000800be0030fb07000001be000c00be00bb
:1024a00069f907000004be003fb19700cfb1970063
:1024b0007fb297008fba97000400be0026fb07008a
:1024c0000005be00b0b79f00c1b79f000a01be0063
:1024d0000800be005cf907000006be000003be0055
:1024e0000000200001302400800f5600818f5e0024
:1024f00018003c00800f5600818f5e001d003a00de
:10250000c2a32a00833323000800be00dcb79f006b
:10251000e7b79f004cf907000002be000a01be00a9
:102520000c00be00f4b79f0085bf9f003df9070077
:102530000001be007fb297008fba97000400be0072
:10254000300b07005fb39700efb397000000e00087
:1025500029003400a22c2f00931427007fa8970095
:102560008fb09700fcfa0700a22c2f0093142700cd
:10257000e00037008701780003f0a1000c0178002b
:102580000000200061312400800f5100818f59002c
:1025900011003c000000200061312c00800f56002b
:1025a000818f5e0014003a000a01be000c00be00dc
:1025b000dcb79f00e7b79f001af907000001be00d3
:1025c0000800be000d0b07005fb39700efb3970044
:1025d0000000e00008003c000226240023da20006e
:1025e0007fa897008fb09700dbfa0700022624002f
:1025f00023da2000bf0037008701780003f0a10034
:10260000060178006022b8000000200001f02300dd
:10261000800f5100818f59003a0034004798de0046
:1026200022f82f00000141000000200001082000d6
:102630000201e900030033008180d1000080d30053
:10264000fbff37000000430081804b00010678004b
:102650008c01780003f0a100479ade00cf9ade00db
:102660000401be00f207b1000380b100b2b79f00c1
:10267000c3b79f00f4ff2f00f5072000bfb19700fc
:102680008301e900030033008582d1000482d30076
:10269000fbff37000482ea008582ea0085016600bc
:1026a00000016200fd0720008d0266000002780034
:1026b0000570a0003fb79700770017000000e90001
:1026c000030033008582d1000482d300fbff370072
:1026d000e00f5300e08f5b0002003d00600212003b
:1026e000e0821a000a00be00f4b79f0085bf9f0079
:1026f000ccf80700b0b79f00c1b79f008fba970012
:102700007fb297003fb19700cfb197000800be009d
:10271000f4b79f0085bf9f00cbf8070081067800c3
:1027200002002800000661000220270013f32300a6
:102730000c00be0088fa07000005be003fb19700fc
:10274000cfb197000c00be00b6f807000001be0034
:102750000800be00b3f807008221270013f323000e
:102760007dfa07000004be00c2e82b00f35b2300e3
:102770000c00be0078fa07000001be000800be0091
:10278000b1f807000006be000001be000a00be004e
:10279000adf807000004be000a01be00a1f8070062
:1027a0000001be000c00be009ef80700b0b79f00fd
:1027b000c1b79f000801be000800be0066fa07000e
:1027c0000005be00c2b42b001333230062fa0700d9
:1027d000e2a02e00d35d230092f807000001be00a6
:1027e0000a00be005cfa070052352b00a3882300c4
:1027f00095f807000001be000a00be0056fa070067
:1028000012b6200063b3230086f807000001be0063
:102810000a00be0050fa0700b2aa2a00a3e2230071
:1028200089f807000001be000a00be004afa07004e
:102830000001be000800be007af807000005be00d7
:102840000001be000800be0043fa07000006be00fb
:1028500002002000030024000a00be0071f80700f7
:102860000001be000c00be005cf907000005be00c0
:102870003fb19700cfb197000800be0036fa0700bd
:102880000001be003fb09700cfb097006ef8070080
:102890000001be000a00be0062f807000801be0089
:1028a00060f807000001be000000200001f82300ce
:1028b0005cf807007fb297008fba9700c721dd0050
:1028c000020020000201400083814800479bde0097
:1028d000cf9bde00e00f5300e08f5b0003003c0065
:1028e00004017800140007000001be007fa89700d3
:1028f0008fb0970018fa0700070037000800200083
:1029000009f82300050037006044b80003003700d1
:102910000a04be00010037000004be000800be002b
:102920004f0778004f06be004f05be004f04be00a3
:102930004f02b10000000600889fbe00020478002c
:10294000f9072000890f54000d0034000200200018
:1029500003f0270000fa0700f807b100890f5400c0
:10296000170034000200200003f02700faf90700e6
:10297000f807b100890f540010003c001000370028
:1029800029f82f00890f54000d003d00020020009f
:1029900003c82000f0f907006806b000890f540052
:1029a00007003d000200200003c82000eaf90700ec
:1029b0006806b000890f540001003d00090478004a
:1029c000f207200008014100cf91de00c711dd00b1
:1029d00002002000e0f907004f04be0000000600de
:1029e000889fbe008a9fbe008c9fbe000004be0070
:1029f0000400200005f827008583600004037800a8
:102a0000840f5300858f5b0007003a000801be0069
:102a10000800be00d0f907000001be000800be009b
:102a200009f8070010003700e00f5000e08f580051
:102a30000f003c008101780003f0a1000001780044
:102a4000e00f5100e08f59006a00320010022000b0
:102a5000704988000801be000800be00f1f70700b9
:102a60000001be00ddf807000004be006100370071
:102a7000478cde00cf8cde00e00f5400e08f5c005e
:102a80000f003a006044b800040037000000400026
:102a90008180480061044400e0844c000400200070
:102aa000050820008181620004017800e00f5100d8
:102ab000e08f5900f5ff320061041400e0841c002f
:102ac000f807b1000980b10081017800f307b20076
:102ad000000178000200be000170a0000808a300f9
:102ae0000200320000004000818048008984d1004b
:102af0000884d30000004000818048009401200039
:102b000002002000031020006055b8006066b80085
:102b10000c0341008d834900800f5300818f5b00bf
:102b200006003c000606410087864900060050006a
:102b3000878058000a0541008b854900000040004d
:102b4000818048008301d1000281d3000402e900a2
:102b5000efff3a00e00f5000e08f58001b003200fa
:102b60000226240023da20000000200001f82300c0
:102b7000acf707000200200003f82300a1090700ba
:102b80000000e000110035000226240023da2000b6
:102b90000000200001f82300abf70700020020002e
:102ba00003f82300970907000000e0000300340049
:102bb00062054500e0854d00040037006000b80064
:102bc000610065000005450081854d00c744dd00ba
:102bd000080020000000200001f02300080440004d
:102be000898448008b85d1000a85d30008044500fc
:102bf00089844d000800be004f06be004f05be0090
:102c00004f04be00000006000001be0083007800f3
:102c100001f0a10002007800000006000000fa00a8
:102c200068815700cfb89700f0408000100078000e
:102c30006c0507000080fa00000006001e04370043
:102c40000000fa0068815700cfb89700f04080007c
:102c500010007800630507000080fa0000000600fd
:102c6000ab00070004010700de0307008f04070024
:102c7000b70407001004070085050700f7050700e3
:102c8000a20537000000fa0068815700cfb897000e
:102c9000f040800010007800520507000080fa0024
:102ca000000006009a000700ce0307007f0407001b
:102cb000a704070000040700e80507009305370094
:102cc0008001780002003700b15978000201e90064
:102cd0000200e000fcff3a0000000600889fbe00f2
:102ce0008a9fbe00800478000200e0005b00320092
:102cf00001407800814c780082814400f1f99f0006
:102d0000e20f51005500360091449800a14498000c
:102d1000e1f99f00d1f99f00e60f51004f00360006
:102d2000b1449800c1f99f00e80f51004b003600f4
:102d30000905ea00630565000a8444000a0551009c
:102d4000c1ff2f00010565000080fb008000eb0043
:102d500012102000131020005b090700008cbe0039
:102d60000a01440060b99f0071b99f00e80f550047
:102d70003a0036002004980031049800400498007e
:102d80005104980020b99f0031b99f0040b99f00bd
:102d900051b99f00f80f55003000360060049800cc
:102da00071049800000c9800110c9800200c9800f9
:102db000310c9800400c9800510c980020b19f00f5
:102dc00031b19f0040b19f0051b19f0060b19f00a1
:102dd00071b19f0000b99f0011b99f0064016400a8
:102de0007801410002044400020555006011b8005a
:102df0000203be000002be000403be006022b80051
:102e000000007200818072000201730083817300f0
:102e100010003700009cbe000294be0040049800e1
:102e2000510498006204980073049800000c980004
:102e3000110c9800220c9800330c9800400c98005c
:102e4000510c9800620c9800730c98000a02b100b3
:102e50000802b000ff0f5500eeff3e0009007800a9
:102e60004f05be004f04be0000000600f140800088
:102e7000910078003b0837000000060040822000e7
:102e800000000600fdff0700104188000041880097
:102e90000000060080007800040037003104e000e4
:102ea00002003a0000005100000006000101780015
:102eb0000108a300f9ff3a00810178003101780090
:102ec000f4ef2f00020242000281ea0002016200d8
:102ed0000408280004016100f7ff32008300780035
:102ee000010178003104e000fdff3a0000005100cc
:102ef00000000600881f78000004780008007800b1
:102f000019080700080078004f0478000000060048
:102f1000ec874700889fbe008a9fbe008c9fbe0042
:102f20008e1f7800000678000104780018079000d2
:102f30002805900098067800cdb79f00b80590004e
:102f40003202be002203be000400be000601be0025
:102f50004f18de006011b8008000eb00d0b79f0072
:102f6000e1b79f00f2b79f0083bf9f008004780005
:102f70000900e000060032006000b8006011b800ef
:102f800004025000858258000603590087835900c7
:102f90000e00e000020035000d10a100cdb79f002b
:102fa0000900e00005003a004fb097000028a30098
:102fb00002003a000038a300020032008a00e90053
:102fc000010037008a007800f8815700a200200035
:102fd00008007800620307000900e00003003a00df
:102fe000cfb097000128a300080032000000e900dc
:102ff00000814500b1c2b3000900e00001003200c9
:10300000d1c2b30001497800050037000138a300a0
:10301000030032000000e90001c2b30081757800ae
:10302000480190000201e900000151008080450044
:103030004fb297008a0178000c0078005205070013
:103040009c0090000188a3000400320098009000ca
:10305000810f500001003d00010078004f0778000b
:103060004f06be004f05be004f04be00cf00b100aa
:1030700000000600000006004200fa00889fbe0023
:103080008a9fbe008c9fbe0020079800110f9800f9
:10309000034f980011007800400f980091009000b5
:1030a000610f98009e099000a3019000330f9800d3
:1030b0001e0a900044029000140798009e0a900097
:1030c000b5029000052798003204be002205be001c
:1030d0006022b8006033b8000800be000a01be00dc
:1030e0001d0807000000e00003003d000bf0a200f7
:1030f000d0c2b300040037004e0b90000628a30096
:1031000009003200b0c2b3008e239000804b7800db
:103110003e0890000000e900700f980011002000a8
:10312000510f9800100037004e0990000238a3009c
:103130000900320000c2b3008e219000804978005f
:103140003e0a90000402e900740f98001500200068
:10315000550f9800040037003e0b9000760f980042
:103160008003eb00570f98000800be000a01be0064
:10317000c0ff0700f4ff2f00f5ff2f00f6ff2f0020
:10318000f7ff2700040260008582600006036100eb
:10319000878361006000b8000200200003ff270061
:1031a0000020e10001a8e10002b0e10003b8e10065
:1031b00011003a000e4890008000fb001104b1009d
:1031c0000e219000de09900003004100f98f5000ad
:1031d00002003e00e1912000010037002192200012
:1031e00096070700209220002aff07005e0a900041
:1031f00004014000150037000020e10001a8e100b3
:1032000002b0e10003b8e100130036008e4a9000de
:103210008500fb001104b1000e239000de0b90002e
:1032200007004300f98f500002003e006192200029
:1032300001003700a192200080070700a092200023
:1032400014ff0700de089000010140004e0a9000c4
:10325000be099000500237006022b8006033b80009
:103260000800be000a01be00bb0707000000e00026
:103270006a0032006022b8000600200007ff230029
:10328000441798005517980066179800771798000c
:103290008006eb000800be000a01be00001f980077
:1032a000111f9800221f9800331f98000e269000cf
:1032b000070037008d06e8000802be000a03be00c2
:1032c00044179800551798006617980077179800cc
:1032d0006022b80006002000470224004e10900033
:1032e000de1090006e119000fe119000fc080700a7
:1032f0000004be000205be000002be000203be00c4
:103300000e1890009e1890002e199000be19900083
:10331000910707000000e000e6ff3d000c27980041
:103320000006eb004e149000de1490006e15900025
:10333000fe1590002500370040ed2f00808f5600cd
:1033400019003d000c00e00016003a006022b800b1
:1033500006002000073524000e1890009e189000eb
:103360002e199000be199000dd0807000002be0073
:103370000203be00041f9800151f9800261f980026
:10338000371f98006022b80006002000073524008f
:103390000800be000a01be00d10807000004be00fc
:1033a0000205be001c0020006022b80006002000bc
:1033b000470224000800be000a01be0019080700e9
:1033c0000004be000205be008d06e9000802be0032
:1033d0000a03be000e1890009e1890002e1990004f
:1033e000be1990005c0707000000e000d2ff350026
:1033f0000800be000a01be0040179800511798004f
:1034000062179800731798000e1c90009e1c900085
:103410002e1d9000be1d9000080037006022b800ed
:103420000600200007ff2300441798005517980056
:1034300066179800771798008006eb008e4a900078
:103440000500fb000e070700104f98006e0b900060
:10345000600020000600e000010035006e089000ca
:1034600071c6b3009e4b900081cf53000a003a0012
:10347000ee0890000100e000cf013200cf013700dc
:103480008d0f5000d3013c00001f980052c6b300be
:10349000425f98001e0037009e499000435f9800ed
:1034a0000200370064c6b300445f98000000e800e3
:1034b000001f980060c6b300ce5a900080cf520023
:1034c00013003a000d00e00008003d006000b80065
:1034d0000200200003ff23004017980051179800b6
:1034e00062179800731798008006eb0061c6b3005e
:1034f000415f980070c6b3001e499000804f510094
:10350000030032008e1990008d814100031f980046
:103510004e129000de1290006e139000fe13900089
:10352000441f9800551f9800661f9800771f980049
:103530000800be000a01be0000179800111798008d
:1035400022179800331798000006eb000802be000f
:103550000a03be0054079800650798007607980094
:10356000070f9800310037004e1a9000de1a9000c5
:103570006e1b9000fe1b90000e1090009e1090009d
:103580002e119000be119000a6070700330b070014
:103590000004be000205be001c0707008002780080
:1035a000250f98004e1a9000de1a90006e1b9000b6
:1035b000fe1b90000800be000a01be00480807007c
:1035c0000e1290009e1290002e139000be139000d9
:1035d000430707000002be000203be0007f0a2007e
:1035e00004179800151798002617980037179800a9
:1035f0006022b80006002000470224004e18900008
:10360000de1890006e199000fe19900085070700e3
:103610000002be000203be00441f9800551f980020
:10362000661f9800771f98000c06e8008e1a90001d
:10363000850f5600ccff35005e049000ee0490002c
:103640007e0590008e0d90006022b80006002000dc
:10365000470124004e189000de1890006e1990006b
:10366000fe1990001e0807000002be000203be0003
:10367000441f9800551f9800661f9800771f9800f8
:103680000e1090009e1090002e119000be11900020
:10369000b10607000000e0000f0035004e1a900050
:1036a000de1a90006e1b9000fe1b90000e10900022
:1036b0009e1090002e119000be119000a6060700eb
:1036c0000000e00011003a00ae0a90000508a300d7
:1036d000080032000d0037006000b8006011b8002b
:1036e000401f9800511f9800621f9800731f980098
:1036f000060037006022b8006033b800441f98000d
:10370000551f9800661f9800771f98004e1a90006a
:10371000de1a90006e1b9000fe1b90000800be0099
:103720000a01be00f40607000002be000203be004c
:103730000417980015179800261798003717980057
:103740006022b80006002000470224004e109000be
:10375000de1090006e119000fe119000e00707004f
:103760000004be000205be000002be000203be004f
:103770000e1090009e1090002e119000be1190002f
:103780007a0607000000e000090035008d06e80019
:1037900060c6b300ce5a900080cf520008003a00b5
:1037a0000e1b90000603e800061f9800110037006a
:1037b0004e149000de1490006e159000fe159000df
:1037c00050c6b3004e599000804f510009003a0096
:1037d0000802be000a03be00441f9800551f98004f
:1037e000661f9800771f98008002eb00451798002d
:1037f000070037000800be000a01be00401f980005
:10380000511f9800621f9800731f98004d17980071
:103810005e0e90000001eb00220f98003207980026
:10382000520798000d0f78006a0037004e1a90007a
:10383000de1a90006e1b9000fe1b90000e10900090
:103840009e1090002e119000be119000f50607000a
:10385000820a07000004be000205be006b060700d6
:10386000e90f50000100340090002000ce099000c4
:103870000348a3000c003a000000e0000a003a00f0
:1038800071c6b3001e4a9000814f520006003a00f4
:10389000ce1290000500e00003003d002e0b9000ca
:1038a0008606e80023003700be0390000700e00012
:1038b0000c003a00ce1090000100e00009003d002d
:1038c000e1c2b3000e21900001717e000c06e800f9
:1038d000fe0990008301e900730f98001400200096
:1038e000340798008e2290000c814200ae0e9000aa
:1038f000850178000300370001c3b3000159780047
:103900008d06e9000d00e000fbff3a000327980058
:103910002e0b9000060646000043b00080717e002a
:103920000c06e8000680ea00fe0b9000808343004e
:10393000770f98004e1a9000de1a90006e1b9000d0
:10394000fe1b90000800be000a01be0064070700cd
:103950000e1290009e1290002e139000be13900045
:103960005f0607000002be000203be0007f0a200cf
:103970000417980015179800261798003717980015
:103980006022b80006002000470224004e18900074
:10399000de1890006e199000fe199000a106070035
:1039a0000002be000203be00441f9800551f98008d
:1039b000661f9800771f9800ce1290008502e900dc
:1039c000451798005e0390000603e800560798002c
:1039d0002d0f9800de0390000e189000808f53008a
:1039e00005003d009e0890004100900065005000d9
:1039f000800f56008dff39009e0678003e01900032
:103a00000200e00007003a00ce0990000348a3003e
:103a100004003200e0c2b3000e22900000727e006b
:103a20000c06e8008e2290000c8042000048eb005b
:103a300051c6b3004e5b9000814f530038003a00ee
:103a40009e0390008700e9000041eb0082f27800bd
:103a50008001eb000d00e00002003d008d06ea0051
:103a6000130020002200200001037800fe0a9000cd
:103a70008e239000000478000a00370001037800cc
:103a8000a4002000110009008406d800010278007b
:103a9000800678000443b00084737b000201e900d3
:103aa0008502e9008600e9000d00e000f3ff3a001e
:103ab0000200e000f1ff3c00750f98000727980016
:103ac0000800780001824300b2c2b3000300e000a6
:103ad00001003200d2c2b300024a78000101e900bd
:103ae0008e219000828041008e4a90000502fb00ea
:103af0001404b10053c6b300f90f520001003e0098
:103b000053c4b300834878007e0b90000683e9001d
:103b1000760f9800820f560001003d004705070010
:103b2000ce0b900063806300e20f500015003a0056
:103b30007e0890000000e000120034000e2090008b
:103b4000d4fc07008e219000040037007e0990000d
:103b500082804100e37078000000e900de0a9000f6
:103b6000850f5000f9ff3d000327980005804100b4
:103b70007e0990000103200058fc07000003eb00c1
:103b8000360f98000e209000c2fc07004e0a9000ed
:103b9000be099000000178008e2090002e00900059
:103ba000790207004f06be004f05be004f04be005d
:103bb0000080fa000000060010002000e48f46009c
:103bc0002ffe3d00001f980057c6b300475f9800c6
:103bd0004ffe37000d00e00032fe3500001f980058
:103be00042fe37000200fa00889fbe008a9fbe0096
:103bf0008005780001047800020078001801900028
:103c00002805900098007800b1bf9f00b80490008c
:103c10000200e000020035000110a100b1bf9f00ca
:103c2000ea815700820020008a0078003002be003e
:103c30002003be0008007800490007003fb9970044
:103c4000f0006100030032000000e90001c3b3008e
:103c5000817478003fb99700e800610003003200ea
:103c60000000e90001c2b3008174780048019000af
:103c70000201e90000015100808044003fba970032
:103c80008a0178000b0078003f0207009b0090003b
:103c90000188a3000400320098009000810f5000ba
:103ca00001003d00010078004f05be004f04be003a
:103cb0000080fa0000000600ea874700889fbe00e7
:103cc0008a9fbe008e1f78000004780003007800f1
:103cd0007287570084e2260055c72600049fbe0065
:103ce000c3962200030f78006c875700004feb004b
:103cf00011059000a1049000910578000200e000f9
:103d00000200320002077800010037007287570076
:103d10000000e00002003a000e0078005dfc0700a1
:103d20000a00e000030035008a0f50000100360051
:103d30000a0078000b027800890178000001780001
:103d40008e007800080078000f0207004f07780007
:103d50004f05be004f04be00af00b10000000600da
:103d6000f4874700889fbe008a9fbe008c9fbe00dc
:103d70008e1f78000605be000404be0081bf9f00b0
:103d800082b79f00f3b79f00b0009000e1b79f009b
:103d90001301780092b79f009006900040009000b9
:103da0000000e900000678000d00e00001003d0081
:103db0001d0020008040eb00efb19700817178007a
:103dc0001e0020001f0037000c06e9000fb097000e
:103dd000cf80de006109b900a0b79f00b1b79f0096
:103de000c2b79f00d3b79f000203be000002be000f
:103df0000800be000a01be00fa07070000077800ad
:103e00000e4078000043b000efb0970080707e0055
:103e10008d06e9000fb997000201e90082bf9f00fb
:103e20002fb29700bfb297004fb39700dfb3970050
:103e30000800be000a01be00e30707000205be003d
:103e40000004be000c00e0000d003400e00f540040
:103e5000e08f5c00e00f5d00e08f5d00daff3a006c
:103e60000d00e000d8ff3c008fb997000300e00090
:103e7000030034001fb097000018a300d2ff3a00df
:103e80000e00e00002003a00ffb097001140a100d0
:103e90000c0078004f0778004f06be004f05be00ab
:103ea0004f04be004f01b100000006000200fa00fe
:103eb000889fbe008a9fbe0000057800010478003c
:103ec0000200780018019000a80490009800780083
:103ed000b1bf9f00b80590000200e000020035006d
:103ee0000110a100b1bf9f00ea815700a20020008d
:103ef000890078003002be002003be000800780070
:103f000097ff0700480190000201e90000015100fd
:103f1000808045003fba9700890178000a00780048
:103f2000990107009a0090000188a3000400320064
:103f300098009000810f500001003d0001007800c2
:103f40004f05be004f04be000080fa0000000600ce
:103f5000fa874700889fbe008a9fbe008c9fbe00e4
:103f60008e1f7800800478000104780082057800b4
:103f7000180190002805900018077800b8009000fc
:103f80000200e000020035000e10a1000100370021
:103f90001200200070006700e0b79f0009003200a7
:103fa0003b02be002b03be00e00f5200e08f5a0020
:103fb000e00f5b00e08f5b00020032008a86e900c0
:103fc000010037008a067800e8026700f5b79f0015
:103fd000010032008d06e9003b02be002b03be004b
:103fe000e4af9f00f5af9f0086b79f0097b79f0093
:103ff000480690000c06e9000040eb0080707e004f
:10400000efb297007fb297008903780081047800af
:10401000d8af9f00020478008bbf9f008a0578000c
:10402000034578002a0037000c06e9006fab9700c3
:104030006f006300e90f500002003c000003b00075
:10404000010037007005b0000a03fb001604b10040
:10405000f90f53000c003e00000378000650a0004a
:104060001606b100f90f530007003e00b4b79f00d9
:10407000a5b79f00c7b79f0008040700cfb39700fc
:10408000afb297003fb2970080747e000804e90049
:104090008d06e9006fa89700ffa897000fb1970061
:1040a0009fb19700460020008301d1000281d30018
:1040b0008180d3000080d3000603e900faff3a00b4
:1040c000e0af9f00f1af9f0082b79f0093b79f00c2
:1040d000e10f56000f0034006fa89700ffa897006b
:1040e0000fb197009fb19700e00f5000e08f58008c
:1040f000e00f5900e08f5900cbff3a000800e000c4
:10410000c9ff3c000d00e000020034000e18a300bf
:10411000c5ff3a0089007800f4b79f008704780053
:104120005fac97008a4178000b0578008fbd97003f
:104130000500e000100032003b02be002b03be0071
:10414000e4af9f00f5af9f0086b79f0097b79f0031
:10415000e00f5200e08f5a00e00f5b00e08f5b0041
:10416000050032000c06e90083707e000c06e900b1
:1041700000c3b30080707e00ffb297000500e0002e
:10418000030032000c06e90000c2b30080707e001c
:10419000480190000201e9000c0151008c804000b0
:1041a0000e0278008a01780009007800f600070006
:1041b000990090000188a30004003200980090004c
:1041c000810f500001003d00010078004f0778008a
:1041d0004f06be004f05be004f04be00af01b10048
:1041e000000006000200fa00881f78000004780032
:1041f000e2bf9f006481570008007800a102070019
:10420000980090000148a300010032000080eb00fc
:104210004f0478000080fa0000000600889fbe006e
:10422000000478004800900082047800808f5400d9
:1042300001003600800478000901780058009000e1
:104240009ffa0700580090000900400050049800b1
:10425000c800900089845000490498000048eb0091
:104260004f04be00000006001000780057f1370030
:10427000900190000388a30001003200e7ff37009f
:104280000348a30001003a00f7ff07000000060002
:10429000881f78000004780000082000808f5000fc
:1042a0001700350010082000808f50000b003400ec
:1042b00030082000808f500011003a0092007800f2
:1042c00068805000000978003002be002003be0064
:1042d000049cbe000694be000700370092027800de
:1042e00064805200000978001000be00a40307009b
:1042f000009cbe000294be001000200001003700a8
:104300000000eb004f047800000006008408200045
:10431000848f50001d0032000d003c001408200066
:10432000848f50002700320002003c000408200067
:104330000400370024082000848f5000340032002d
:1043400044082000848f500043003a0036003700b4
:10435000040a2000848f50002700320004003c0033
:1043600004092000848f50003b003a0028003700e9
:10437000020c2000828f50002f003200020f20001c
:10438000828f500034003a002b0037009380e90000
:104390000200e00005003200810978001102fb00f4
:1043a000cfa2de00612bb900280037008109780018
:1043b000114278000482fb008002eb006033b800f9
:1043c0002200370013027800e40052000200e000ef
:1043d00005003200810978001102be004fabde00fb
:1043e0008603780019003700810978001102be00a9
:1043f0006033b800150037009380e9008109780028
:1044000011027800cfa2de00612bb9000f00370047
:1044100093027800e8805200810978003102be00e2
:104420002103be00090037009380e9000200e0008c
:1044300002003200f1ff37009380e9008109780023
:10444000110278008002eb006033b8000498be00cf
:104450000690be0010000500000005004408200082
:10446000848f50002500320008003c001408200012
:10447000848f50001400320024082000848f5000e4
:1044800024003200040820000c003700040920003a
:10449000848f50001f00320004003c00840820007c
:1044a000848f500024003a000e003700040a2000d8
:1044b000848f500011003200040c2000848f5000c3
:1044c0001d003a000d0037009380e9008109780053
:1044d0009100780001087800cf91de008288be004c
:1044e000140037009380e90081097800910078007a
:1044f00001087800824878000e0037009380e900b8
:10450000810978009100780001087800820878001d
:10451000080037009380e900810978009100780055
:10452000010878006112b900612bb9008498be00bf
:104530008690be001000050000000500889fbe00a8
:10454000000478004800900082047800808f5400b6
:1045500001003600800478000901780058009000be
:10456000d7f9070058009000090040005004980057
:10457000c800900089845000490498000048eb006e
:104580004f04be0000000600f2874700889fbe006f
:104590008a9fbe008c9fbe008e1f7800800478002a
:1045a0000105780002047800830578006107620045
:1045b00002003a008b0f540008003900080178000f
:1045c0008a0078000900780029ff07008b0f54004b
:1045d00002003900880578001e0037000886550063
:1045e0000c017800f00f5600010036000201200097
:1045f000010220007e805700b8f907008c06780081
:104600000500370002012000fe80570009007800f5
:1046100017ff0700f0865600ef8f5600f9ff3e00a7
:104620004461de0000ff2f000091b9000201460046
:10463000fe805700090078000dff07000e00e00023
:1046400004003a00080178008a0078000900780028
:1046500007ff07000b0078004f0778004f06be00e9
:104660004f05be004f04be002f01b1000000060040
:1046700000000500000005000000050000017800b2
:104680000040eb008080fb0081804000e38c200034
:1046900063c278000404e00003003a00f08c2000bc
:1046a00060c078000000060092017800934f52002d
:1046b00004003a00f08c200060c078000309e80094
:1046c000010037000040e800ea4f5000edff3600df
:1046d00000000600f6874700889fbe008a9fbe0044
:1046e0008c9fbe008e1f78000005780001047800c2
:1046f00083057800040678000000eb00c0b79f0037
:104700008080eb00d1b79f00e0b79f00f2b79f0019
:104710000008200080bf9f0098007800010078000a
:104720008004eb00010037008904e8003041780084
:104730000204e0000300320053c2b300834f510073
:10474000f9ff3a000900e000040032000901780096
:104750000a007800c6fe0700188c4400180778008d
:1047600050c2b3009e4f10003f013a000e07e80010
:104770000e0c780010003700cfb097000100a000a9
:104780000b003700cfb097000110a00008003700e1
:10479000cfb097000120a00005003700cfb09700f0
:1047a0000130a00002003700cfb097000140a00008
:1047b000c1b79f00000ce800180078009040780016
:1047c000b2c2b30082cf5000f1ff320007003c00bc
:1047d00002c2b30082cf5000f0ff320032c2b300f9
:1047e00082cf500007003a00efff3700d2c2b3007b
:1047f00082cf5000e0ff320002c3b30082cf5000ee
:10480000e0ff3200a2c2b30082cf50000d003a0098
:10481000000ce8001c80e900000e78001000780011
:10482000e0b79f000000e0000f003d00cfb0970010
:104830000100a200c1b79f000000ea00e0b79f009e
:104840000900370084010700e0b79f00010037002e
:10485000000ce800180078009000fb000103b10094
:10486000e98f5000faff36004fb097000008a30010
:10487000020032000010a100c0b79f0018007800ad
:10488000e1c2b30090cf100016003a008000eb00a8
:10489000d1b79f000000e800000c7800a1c2b3006f
:1048a00090cf100006003a00000ce8001c80e900e0
:1048b000000e780010007800d0b79f000900370084
:1048c00065010700d0b79f0001003700000ce80029
:1048d000180078009000fb000103b100e98f500040
:1048e000faff36000800780064ff07008046780071
:1048f000180078001000fb00e1010700910620007d
:10490000810f50003800320012003c0041062000a8
:10491000810f5000340032000a003c0011062000d4
:10492000810f50002000320031062000810f50001e
:10493000a000320051022000810f5000bc003a005c
:10494000b400370071062000810f5000b8003c0011
:104950008800370001072000810f50005c00320002
:1049600007003c00e1062000810f50007a00320071
:10497000f1062000810f5000ad003a0039003700e9
:1049800051072000810f50002700320081072000ce
:10499000810f50004200320031072000810f50008b
:1049a000a3003a008f0037008d80fb000c017800d7
:1049b00000fe2f000f00400035fe07000000e00061
:1049c000a800320018007800000ce8009041780040
:1049d00002fe2f000f014100f88057000a00780006
:1049e00024ff07000e0037008d80fb008c0178004b
:1049f0001200200000fe2f000f00400043fe0700c1
:104a00000000e00097003200180ce80002fe2f00c2
:104a10000f014100f88057000a0078003cf90700b8
:104a200080844400900037008d80fb008c0178006a
:104a30000001eb0000fe2f000f00400033fe0700d6
:104a40000000e00087003200180ce80002fe2f0092
:104a50000f014100f88057000a00780013fd07009d
:104a6000efff37008d80fb008c0178000001eb0028
:104a700000fe2f000f00400024fe07000000e000b1
:104a800078003200180ce80002fe2f000f014100f0
:104a9000f88057000a00780052fc0700e0ff37005a
:104aa0008d80fb008c0178000001eb0000fe2f00e0
:104ab0000f00400015fe07000000e0006900320012
:104ac00018007800000ce800904178001c003700c6
:104ad0008c0178000001eb00010f200000fe2f0088
:104ae0000f00400009fe07000000e0005d003200fa
:104af000180ce8000fb097009fb097002fb19700f7
:104b0000bfb19700e00f5000e08f5800e00f590050
:104b1000e08f590009003a00cfb597006fb49700b5
:104b2000608c2000dbf807000b0278008801780019
:104b300000017800618c20004700370083c7b30074
:104b400002fe2f000f014100f88057000a00780094
:104b5000fffc0700b2ff37000b8144008d80fb0093
:104b60008c01780000fe2f000f0040003bfe070084
:104b70003c0037008d80fb000c01780000fe2f0008
:104b80000f004000c2fd07000000e00035003200c9
:104b900018007800000ce8009041780002fe2f0019
:104ba0000f014100f88057000a00780032f9070031
:104bb0009bff370000c8b30080cf560029003a00a1
:104bc000180ce8001c80e900000e78001040780006
:104bd000e0df9f0013002000e2fd2f000f014100e5
:104be0000800370000c8b30080cf56001d003a000f
:104bf000180ce8001c80e900000e78008001eb0032
:104c000010017800f88057000a0078002afc07009d
:104c100083ff370000c8b30080cf560011003a0070
:104c2000180ce8004fb29700efb19700080037006a
:104c30000e0c78000000eb00c0b79f00e0b79f00ab
:104c40000080eb00d0b79f000002eb0084017800e9
:104c500012002000c18c20000a0078004afe0700e4
:104c60006fff3700180ce800090078004f07780044
:104c70004f06be004f05be004f04be006f01b100dd
:104c8000000006008200fa00889fbe008a1f78009c
:104c90000005780082047800c13f9f000004eb000b
:104ca000100037000902780088017800a2f72f0071
:104cb0000f01410081f72f008f8040000a0078002b
:104cc00084fe070008004000880f500004003d00eb
:104cd000b0042000704988000084eb000400370015
:104ce000000478004f3897001004e000edff3a0010
:104cf000080078004f0578004f04be000080fa00dd
:104d000000000600889fbe000004be000000eb000b
:104d10000800e00018003200180090000058a300be
:104d20000d003200d800900068009000808f500085
:104d300009003600b80990000001eb0082007800fd
:104d40000800780003000100d80090000080eb000c
:104d50000100e000080032000000eb00200c980089
:104d600060049800500498000900e000020032003e
:104d7000180078008cee07004f04be00000006000b
:104d8000889fbe000004be000000eb000800e000a9
:104d900025003200180090000058a30011003200d6
:104da000d800900068009000808f50000900360005
:104db000b80990000001eb0082007800080078003c
:104dc00003000100d80090000080eb000100e0002b
:104dd000150032000000eb00200c980060049800e1
:104de00050049800780a900008109000800f52003c
:104df000060031000002520011002000cfa2de00a8
:104e0000612bb90018007800390007000000eb00a2
:104e100000149800700c98000900e00002003200b5
:104e20001800780060ee07004f04be000000060086
:104e3000800078001000200002022000828f5000c5
:104e400004003200e9805000e48f50000100360079
:104e50000000eb0000000600889fbe008a1f78005b
:104e6000000578000a047800984478000805e800f6
:104e70000900fb00eeff07000000e000f9ff3a0028
:104e8000b0c2b30080cf540005003200d0c2b300de
:104e90008000eb0080cf540005003a00020037008c
:104ea0008000eb0001003700110020000804e8003a
:104eb0000000eb00030037006a02b9000200520054
:104ec0000003b0003801fb0003fd2f008281410088
:104ed000e98f5100f8ff36000100e00001003a00c0
:104ee0000000ea004f0578004f04be0000000600f5
:104ef000a0fd2f00f1ff2f00570007004f89de00b3
:104f000082017800000006000200fa0081017800aa
:104f1000e0ff9f00930090000188a300050032008d
:104f2000d3009000805878000080fb00d1019800e9
:104f30000a003700120020008f80e900030078008b
:104f4000c9fc0700800078000080eb000100e00051
:104f500002003200eff897000180fb000080fa00a9
:104f600000000600e8ff3700881f78008101780004
:104f700000027800808268000508a3000200320069
:104f8000210037000201e9000300780004047800e2
:104f90000308a300070032000200e00021003200f5
:104fa000b3407800015a78000104e000f5ff3a00b0
:104fb000020037000200e0001a0032001004e00096
:104fc00003003a0017003700031c78000281e90053
:104fd00080007800e10f510008003600b001780031
:104fe000f5ef2f00838242000382ea000482620010
:104ff0000508280005026200f3ff3200080078006f
:10500000010037000201e900000478000200e0001e
:1050100004003200b1417800035878000304e00036
:10502000f8ff3a008000eb00080078002bf707003b
:10503000080078004f04780000000600881f780000
:1050400000047800080078001f00070008007800be
:105050004f0478000000060002002f00f3ff2f002d
:10506000820f5000838f5800040036000000ea00d1
:10507000704988000080eb008080eb000000060093
:10508000f1fb2f0080804000f98f500001003e00ae
:105090000050a00000000600f9ff3700f1f92f00d2
:1050a00080804000f98f500001003e00f005b20002
:1050b00000000600f9ff37000000060071f7070046
:1050c000fdff0700fcff3700010178008001780038
:1050d000008268000408a3000500320013003700b6
:1050e00032407800805978000004e000140032005b
:1050f000030278000208a300f9ff3a0003007800d9
:10510000010037000318780082007800b2017800af
:10511000f5ef2f00838242000382ea0004826200de
:105120000508280005026200f6ff32000002780040
:1051300031417800025878000204e000fbff3a0099
:10514000040078000000060000c0da00000006003d
:1051500000c0da00000006008f1fd10083030700a3
:105160008f87e9000000e00000000600809feb0050
:105170007e0307008f87e9000000e00000000600c2
:105180008103780012ee07000001be006000b80045
:105190000478a30013003a006220e10015003e00ed
:1051a0000d0039008301d1000281d3008180d3003a
:1051b0008301d1000281d3008180d3008301d1001b
:1051c0000281d3008180d3000538b000c42add00fd
:1051d000f300b2008381720007f0a70003f0a00083
:1051e0000000060083ff2700020020006110b900c4
:1051f000f9ff370003ff2700f7ff370014002000f6
:10520000d5033700f4ff2f00d30337001400fa0052
:10521000889fbe008a9fbe008c9fbe000004be0017
:105220000205be00680047000a90be000890be005c
:10523000890307000070a7000bf0a1003043200095
:105240009e02900080825200b0fe2f000028e100f4
:1052500011003d00b0fc2f000028e10015003400d3
:105260001e0990008e0890007e0090000501b0009d
:105270000201d1008180d3000080d3008502e800c4
:10528000fbff3a000b00e000ae033b0060001000a3
:10529000e0801800ab033700f0ff2f00f1ff27007c
:1052a0000b00e000a7033b000100280000002000e5
:1052b000a40337006000b800a20337004f89de0066
:1052c00082017800bf033700020ab900001bb90051
:1052d0000200b80081004200810043000000060087
:1052e0008c9fbe008a9fbe00889fbe00ca01070037
:1052f0000bf0a200040037008c9fbe008a9fbe0006
:10530000889fbe00c40107000c48e1000b003a0072
:105310000c40e100020032008b0107004000370022
:105320008b066d003e0032000af0a100f301200060
:10533000f2ff2f006110b900390037000c40e10086
:10534000370032000940e100010036007e0107000d
:105350008a856d00cf5dde000b0575000006eb0051
:105360008804fd0089045400010032007d0107001b
:105370000a04e00011003a000800e00028003200b2
:1053800004004000858048000601490087814900eb
:105390000358a300180032008301d1000281d3001a
:1053a0008180d3000080d3000c86d3000100390037
:1053b000610676000804e800180037000400500079
:1053c0008580580006015900878159000600310088
:1053d0000af0a2000c06ea0060001800e080180045
:1053e00060011900e081190003003a000004eb009d
:1053f0000005eb000a0037000348a30007003a004d
:105400000c06460000004800818048000201490067
:10541000838149000804e900f7ff3700af01370036
:10542000c90137008c9fbe008a9fbe00889fbe00c6
:10543000790107000b056d000940e1000a003a0000
:105440000800e000020032000c40e10006003a00d3
:105450000af0a1000c047800f3012000f2ff2f00f5
:105460006110b9009d0037000c40e1009b00320044
:105470000800e000990032000c48e10002003a0008
:105480000004eb00030037000900e00004003a00cc
:105490000c0478006000b8006011b8008f0037007d
:1054a0000348a30006003a00000040008180480045
:1054b00002014900838149000804e900f8ff370030
:1054c0000748a30006003a000402420085824a0011
:1054d00006034b0087834b008904e900f8ff37007f
:1054e000fd3f20008d845400090454008a1f780079
:1054f000881f780000047800810478000205780095
:10550000830578006000b8006011b8000d04200029
:10551000050037000804440089844c000a054d004a
:105520008b854d00080031000404540085845c0024
:1055300006055d0087855d008381d2008d06d3005e
:10554000f4ff3b00070037000404440085844c004e
:1055500006054d0087854d008381d2008d06d3005e
:10556000ecff3b000804440089844c000a054d0010
:105570008b854d00080031000404540085845c00d4
:1055800006055d0087855d000281d2008d06d3008f
:10559000f4ff3b00070037000404440085844c00fe
:1055a00006054d0087854d000281d2008d06d3008f
:1055b000ecff3b000804440089844c000a054d00c0
:1055c0008b854d00080031000404540085845c0084
:1055d00006055d0087855d008180d2008d06d300c1
:1055e000f4ff3b00070037000404440085844c00ae
:1055f00006054d0087854d008180d2008d06d300c1
:10560000ecff3b000804440089844c000a054d006f
:105610008b854d00080031000404540085845c0033
:1056200006055d0087855d000080d2008d06d300f1
:10563000f4ff3b00070037000404440085844c005d
:1056400006054d0087854d000080d2008d06d300f1
:10565000ecff3b000b00e00004003d0004044400ac
